:1000000012C02AC029C028C027C026C025C024C0CD
:1000100023C022C021C020C01FC061C01DC01CC0A1
:100020001BC01AC019C011241FBECFEDCDBF10E0F8
:10003000A0E6B0E0E2EBF2E002C005900D92AA3635
:10004000B107D9F720E0AAE6B0E001C01D92AD36B5
:10005000B207E1F7E2D02BC1D3CF8FEF87BB81BBD3
:100060008AE086BF82E080BF81E089BF84E083BFF1
:10007000089593FF03C091958195910924E0969589
:1000800087952A95E1F78F77089590E08A3010F4EC
:10009000890F08958A50905FF9CFE82FF0E0E05A79
:1000A000FF4F908198BB8850823010F4969A089543
:1000B0009698089598EF92BB813031F018F0823015
:1000C00029F00895909A0895919A0895929A089522
:1000D000CF93C82F862FE1DF8C2FCF91EBCF1F92CC
:1000E0000F920FB60F9211242F933F934F935F936C
:1000F0006F937F938F939F93AF93BF93EF93FF93F0
:1001000080916C00813001F128F0823019F1109259
:100110006C0009C060916B0080E0DADF80916C00B8
:100120008F5F80936C00FF91EF91BF91AF919F9192
:100130008F917F916F915F914F913F912F910F9090
:100140000FBE0F901F90189560916A0062956F70B6
:1001500081E0E3CF60916A006F7082E0DECF939818
:100160008B9A86EA8A95F1F700C08B9880E18A9590
:10017000F1F700C090B386E98A95F1F7937081E0BA
:1001800009F080E008958B9A00C000C00000811142
:100190008B988AE18A95F1F700C08B9808950F93A8
:1001A0001F93CF93DF93D0E0C0E0082F10E0C80189
:1001B0000C2E02C0959587950A94E2F78170E3DFD3
:1001C0002196C830D10599F7DF91CF911F910F91FA
:1001D00008958B9A00C08B9883E08A95F1F7000010
:1001E00080B390E19A95F1F700C0837008951F9352
:1001F000CF93DF93D0E0C0E010E0EBDF0C2E01C026
:10020000880F0A94EAF7182B2196C830D105A9F770
:10021000812FDF91CF911F9108951FDFD0E0C0E0C3
:1002200012E087E893E10197F1F700C00000F8942D
:1002300096DF811106C010936B0010926A007894CB
:10024000F0CFC830D105E0F4FE01E85DFE4F09941F
:1002500007C00BC015C01BC01CC01FC018C020C0E9
:100260008CEC9DDF84E49BDF0BC078949FEE29E447
:1002700082E0915020408040E1F700C00000F894F7
:100280002196C830D105DCF2D0E0C0E0D8CF67DFDE
:10029000F7CF8CEC84DF8EEBE6CFA9DFA8DFF0CFC1
:1002A00010926B0080E0F1DE80936A00E9CFF89451
:0202B000FFCF7E
:0A02B2000004020601050307000422
:00000001FF
