:1000000012C02AC029C028C027C026C025C024C0CD
:1000100023C022C021C020C01FC061C01DC01CC0A1
:100020001BC01AC019C011241FBECFEDCDBF10E0F8
:10003000A0E6B0E0EEE6F2E002C005900D92AA362E
:10004000B107D9F720E0AAE6B0E001C01D92AF36B3
:10005000B207E1F7F4D009C1D3CF8FEF87BB81BBE3
:1000600086BF82E080BF81E089BF85E083BF78944E
:10007000089593FF03C091958195910924E0969589
:1000800087952A95E1F78F77089590E08A3010F4EC
:10009000890F08958A50905FF9CFE82FF0E0E05A79
:1000A000FF4F908198BB8850823010F4969A089543
:1000B0009698089598EF92BB813031F018F0823015
:1000C00029F00895909A0895919A0895929A089522
:1000D000CF93C82F862FE1DF8C2FCF91EBCF1F92CC
:1000E0000F920FB60F9211242F933F934F935F936C
:1000F0006F937F938F939F93AF93BF93EF93FF93F0
:1001000080916A008F5F80936A00843018F139D043
:10011000882389F18CEC55D08EEB53D032D079D036
:1001200080936C0076D080936B0083FB992790F9C5
:1001300090936E0090916C0089279827892799DF0A
:10014000A4DF80936D001DD08CEC3BD084E439D0CB
:1001500010926A00FF91EF91BF91AF919F918F91A3
:100160007F916F915F914F913F912F910F900FBEB3
:100170000F901F90189582E080936E0010926D0092
:10018000E7CF93988B9A86EA8A95F1F700C08B980F
:1001900080E18A95F1F700C090B386E98A95F1F77E
:1001A000937081E009F080E008958B9A00C000C050
:1001B000000081118B988AE18A95F1F700C08B9835
:1001C00008950F931F93CF93DF93D0E0C0E0082FE3
:1001D00010E0C8010C2E02C0959587950A94E2F7AD
:1001E0008170E3DF2196C830D10599F7DF91CF9177
:1001F0001F910F9108958B9A00C08B9883E08A9588
:10020000F1F7000080B390E19A95F1F700C0837098
:1002100008951F93CF93DF93D0E0C0E010E0EBDFB1
:100220000C2E01C0880F0A94EAF7182B2196C830CB
:10023000D105A9F7812FDF91CF911F9108950DDF8F
:10024000A0DF8CECBEDF84E4BCDF60916E0080E058
:100250003FDF60916D0062956F7081E039DF6091E2
:0E0260006D006F7082E034DFF0CFF894FFCFB6
:0A026E000004020601050307000466
:00000001FF
